{
  "_format": "hh-sol-artifact-1",
  "contractName": "TokenSender",
  "sourceName": "contracts/TokenSender.sol",
  "address": "0x23599f9E45c5E105C8c23E24EBe1f13Df3A0D64E",
  "abi": [
    {
      "inputs": [
        {
          "internalType": "address payable",
          "name": "_to",
          "type": "address"
        },
        {
          "internalType": "uint256",
          "name": "_value",
          "type": "uint256"
        }
      ],
      "name": "transfer",
      "outputs": [],
      "stateMutability": "payable",
      "type": "function"
    }
  ],
  "bytecode": "0x608060405234801561001057600080fd5b50610191806100206000396000f3fe60806040526004361061001e5760003560e01c8063a9059cbb14610023575b600080fd5b61006f6004803603604081101561003957600080fd5b81019080803573ffffffffffffffffffffffffffffffffffffffff16906020019092919080359060200190929190505050610071565b005b343373ffffffffffffffffffffffffffffffffffffffff163110156100e1576040517f08c379a000000000000000000000000000000000000000000000000000000000815260040180806020018281038252602f81526020018061012d602f913960400191505060405180910390fd5b8173ffffffffffffffffffffffffffffffffffffffff166108fc829081150290604051600060405180830381858888f19350505050158015610127573d6000803e3d6000fd5b50505056fe496e73756666696369656e742062616c616e6365206f7220696e76616c6964207472616e7366657220616d6f756e74a26469706673582212207b4be7cf52fa3ea9c0fea2e934014ec77e49d95c1575023c942ddb54b605599f64736f6c63430007030033",
  "linkReferences": {},
  "deployedLinkReferences": {}
}